{
  "contractName": "HandymanContract",
  "abi": [
    {
      "anonymous": false,
      "inputs": [
        {
          "indexed": false,
          "internalType": "uint256",
          "name": "bookingId",
          "type": "uint256"
        }
      ],
      "name": "AssignmentCancelled",
      "type": "event"
    },
    {
      "anonymous": false,
      "inputs": [
        {
          "indexed": false,
          "internalType": "uint256",
          "name": "bookingId",
          "type": "uint256"
        },
        {
          "indexed": false,
          "internalType": "string",
          "name": "name",
          "type": "string"
        },
        {
          "indexed": false,
          "internalType": "string",
          "name": "email",
          "type": "string"
        },
        {
          "indexed": false,
          "internalType": "string",
          "name": "service",
          "type": "string"
        },
        {
          "indexed": false,
          "internalType": "string",
          "name": "date",
          "type": "string"
        },
        {
          "indexed": false,
          "internalType": "string",
          "name": "time",
          "type": "string"
        }
      ],
      "name": "BookingCreated",
      "type": "event"
    },
    {
      "anonymous": false,
      "inputs": [
        {
          "indexed": false,
          "internalType": "uint256",
          "name": "bookingId",
          "type": "uint256"
        }
      ],
      "name": "BookingDeleted",
      "type": "event"
    },
    {
      "anonymous": false,
      "inputs": [
        {
          "indexed": false,
          "internalType": "uint256",
          "name": "bookingId",
          "type": "uint256"
        },
        {
          "indexed": false,
          "internalType": "string",
          "name": "name",
          "type": "string"
        },
        {
          "indexed": false,
          "internalType": "string",
          "name": "email",
          "type": "string"
        },
        {
          "indexed": false,
          "internalType": "string",
          "name": "service",
          "type": "string"
        },
        {
          "indexed": false,
          "internalType": "string",
          "name": "date",
          "type": "string"
        },
        {
          "indexed": false,
          "internalType": "string",
          "name": "time",
          "type": "string"
        }
      ],
      "name": "BookingUpdated",
      "type": "event"
    },
    {
      "anonymous": false,
      "inputs": [
        {
          "indexed": false,
          "internalType": "uint256",
          "name": "bookingId",
          "type": "uint256"
        },
        {
          "indexed": false,
          "internalType": "address",
          "name": "contractor",
          "type": "address"
        }
      ],
      "name": "JobAssigned",
      "type": "event"
    },
    {
      "inputs": [
        {
          "internalType": "uint256",
          "name": "",
          "type": "uint256"
        }
      ],
      "name": "bookingToContractor",
      "outputs": [
        {
          "internalType": "address",
          "name": "",
          "type": "address"
        }
      ],
      "stateMutability": "view",
      "type": "function"
    },
    {
      "inputs": [
        {
          "internalType": "uint256",
          "name": "",
          "type": "uint256"
        }
      ],
      "name": "bookings",
      "outputs": [
        {
          "internalType": "string",
          "name": "name",
          "type": "string"
        },
        {
          "internalType": "string",
          "name": "email",
          "type": "string"
        },
        {
          "internalType": "string",
          "name": "service",
          "type": "string"
        },
        {
          "internalType": "string",
          "name": "date",
          "type": "string"
        },
        {
          "internalType": "string",
          "name": "time",
          "type": "string"
        },
        {
          "internalType": "address",
          "name": "contractor",
          "type": "address"
        }
      ],
      "stateMutability": "view",
      "type": "function"
    },
    {
      "inputs": [],
      "name": "nextBookingId",
      "outputs": [
        {
          "internalType": "uint256",
          "name": "",
          "type": "uint256"
        }
      ],
      "stateMutability": "view",
      "type": "function"
    },
    {
      "inputs": [
        {
          "internalType": "string",
          "name": "_name",
          "type": "string"
        },
        {
          "internalType": "string",
          "name": "_email",
          "type": "string"
        },
        {
          "internalType": "string",
          "name": "_service",
          "type": "string"
        },
        {
          "internalType": "string",
          "name": "_date",
          "type": "string"
        },
        {
          "internalType": "string",
          "name": "_time",
          "type": "string"
        }
      ],
      "name": "bookService",
      "outputs": [],
      "stateMutability": "nonpayable",
      "type": "function"
    },
    {
      "inputs": [],
      "name": "getBookings",
      "outputs": [
        {
          "components": [
            {
              "internalType": "string",
              "name": "name",
              "type": "string"
            },
            {
              "internalType": "string",
              "name": "email",
              "type": "string"
            },
            {
              "internalType": "string",
              "name": "service",
              "type": "string"
            },
            {
              "internalType": "string",
              "name": "date",
              "type": "string"
            },
            {
              "internalType": "string",
              "name": "time",
              "type": "string"
            },
            {
              "internalType": "address",
              "name": "contractor",
              "type": "address"
            }
          ],
          "internalType": "struct HandymanContract.Booking[]",
          "name": "",
          "type": "tuple[]"
        }
      ],
      "stateMutability": "view",
      "type": "function"
    },
    {
      "inputs": [
        {
          "internalType": "uint256",
          "name": "_bookingId",
          "type": "uint256"
        },
        {
          "internalType": "string",
          "name": "_name",
          "type": "string"
        },
        {
          "internalType": "string",
          "name": "_email",
          "type": "string"
        },
        {
          "internalType": "string",
          "name": "_service",
          "type": "string"
        },
        {
          "internalType": "string",
          "name": "_date",
          "type": "string"
        },
        {
          "internalType": "string",
          "name": "_time",
          "type": "string"
        }
      ],
      "name": "editBooking",
      "outputs": [],
      "stateMutability": "nonpayable",
      "type": "function"
    },
    {
      "inputs": [
        {
          "internalType": "uint256",
          "name": "_bookingId",
          "type": "uint256"
        }
      ],
      "name": "deleteBooking",
      "outputs": [],
      "stateMutability": "nonpayable",
      "type": "function"
    },
    {
      "inputs": [
        {
          "internalType": "uint256",
          "name": "_bookingId",
          "type": "uint256"
        },
        {
          "internalType": "address",
          "name": "_contractor",
          "type": "address"
        }
      ],
      "name": "assignJob",
      "outputs": [],
      "stateMutability": "nonpayable",
      "type": "function"
    },
    {
      "inputs": [
        {
          "internalType": "uint256",
          "name": "_bookingId",
          "type": "uint256"
        }
      ],
      "name": "cancelAssignment",
      "outputs": [],
      "stateMutability": "nonpayable",
      "type": "function"
    },
    {
      "inputs": [
        {
          "internalType": "address",
          "name": "_contractor",
          "type": "address"
        }
      ],
      "name": "getAssignedJobs",
      "outputs": [
        {
          "components": [
            {
              "internalType": "string",
              "name": "name",
              "type": "string"
            },
            {
              "internalType": "string",
              "name": "email",
              "type": "string"
            },
            {
              "internalType": "string",
              "name": "service",
              "type": "string"
            },
            {
              "internalType": "string",
              "name": "date",
              "type": "string"
            },
            {
              "internalType": "string",
              "name": "time",
              "type": "string"
            },
            {
              "internalType": "address",
              "name": "contractor",
              "type": "address"
            }
          ],
          "internalType": "struct HandymanContract.Booking[]",
          "name": "",
          "type": "tuple[]"
        }
      ],
      "stateMutability": "view",
      "type": "function"
    },
    {
      "inputs": [
        {
          "internalType": "address",
          "name": "_contractor",
          "type": "address"
        }
      ],
      "name": "deleteAllAssignedJobs",
      "outputs": [],
      "stateMutability": "nonpayable",
      "type": "function"
    }
  ],
  "bytecode": "0x608060405234801561001057600080fd5b5061262b806100206000396000f3fe608060405234801561001057600080fd5b50600436106100a95760003560e01c80633ae7f0df116100715780633ae7f0df146101555780635785b15414610171578063955c8420146101a1578063be9673d6146101bf578063f3a4735a146101ef578063f76537101461020b576100a9565b80630fc03bd6146100ae57806319cee453146100ca5780631dab301e146100e657806326f20c791461011b578063357c530714610139575b600080fd5b6100c860048036038101906100c39190611a2f565b610227565b005b6100e460048036038101906100df9190611b48565b610416565b005b61010060048036038101906100fb9190611b48565b6105e2565b60405161011296959493929190611c35565b60405180910390f35b6101236108f6565b6040516101309190611cc8565b60405180910390f35b610153600480360381019061014e9190611d0f565b6108fc565b005b61016f600480360381019061016a9190611b48565b610a6f565b005b61018b60048036038101906101869190611b48565b610b89565b6040516101989190611d3c565b60405180910390f35b6101a9610bbc565b6040516101b69190611f17565b60405180910390f35b6101d960048036038101906101d49190611d0f565b610f4b565b6040516101e69190611f17565b60405180910390f35b61020960048036038101906102049190611f39565b611483565b005b61022560048036038101906102209190611f79565b61166e565b005b600154861061026b576040517f08c379a0000000000000000000000000000000000000000000000000000000008152600401610262906120cc565b60405180910390fd5b6040518060c00160405280868152602001858152602001848152602001838152602001828152602001600088815481106102a8576102a76120ec565b5b906000526020600020906006020160050160009054906101000a900473ffffffffffffffffffffffffffffffffffffffff1673ffffffffffffffffffffffffffffffffffffffff1681525060008781548110610307576103066120ec565b5b9060005260206000209060060201600082015181600001908161032a9190612327565b5060208201518160010190816103409190612327565b5060408201518160020190816103569190612327565b50606082015181600301908161036c9190612327565b5060808201518160040190816103829190612327565b5060a08201518160050160006101000a81548173ffffffffffffffffffffffffffffffffffffffff021916908373ffffffffffffffffffffffffffffffffffffffff1602179055509050507fd9d79d4d12f3108ebbf9ee68aaf9d46439a84a67221664c38e7bf68ec32f6fb3868686868686604051610406969594939291906123f9565b60405180910390a1505050505050565b600154811061045a576040517f08c379a0000000000000000000000000000000000000000000000000000000008152600401610451906120cc565b60405180910390fd5b600073ffffffffffffffffffffffffffffffffffffffff1660008281548110610486576104856120ec565b5b906000526020600020906006020160050160009054906101000a900473ffffffffffffffffffffffffffffffffffffffff1673ffffffffffffffffffffffffffffffffffffffff160361050e576040517f08c379a0000000000000000000000000000000000000000000000000000000008152600401610505906124c9565b60405180910390fd5b6000808281548110610523576105226120ec565b5b906000526020600020906006020160050160006101000a81548173ffffffffffffffffffffffffffffffffffffffff021916908373ffffffffffffffffffffffffffffffffffffffff1602179055506002600082815260200190815260200160002060006101000a81549073ffffffffffffffffffffffffffffffffffffffff02191690557f7a4f8a0920dd8bf5c78f5ec53fdf98a9fde62917f13e5897f2d845ba741f7e9a816040516105d79190611cc8565b60405180910390a150565b600081815481106105f257600080fd5b90600052602060002090600602016000915090508060000180546106159061214a565b80601f01602080910402602001604051908101604052809291908181526020018280546106419061214a565b801561068e5780601f106106635761010080835404028352916020019161068e565b820191906000526020600020905b81548152906001019060200180831161067157829003601f168201915b5050505050908060010180546106a39061214a565b80601f01602080910402602001604051908101604052809291908181526020018280546106cf9061214a565b801561071c5780601f106106f15761010080835404028352916020019161071c565b820191906000526020600020905b8154815290600101906020018083116106ff57829003601f168201915b5050505050908060020180546107319061214a565b80601f016020809104026020016040519081016040528092919081815260200182805461075d9061214a565b80156107aa5780601f1061077f576101008083540402835291602001916107aa565b820191906000526020600020905b81548152906001019060200180831161078d57829003601f168201915b5050505050908060030180546107bf9061214a565b80601f01602080910402602001604051908101604052809291908181526020018280546107eb9061214a565b80156108385780601f1061080d57610100808354040283529160200191610838565b820191906000526020600020905b81548152906001019060200180831161081b57829003601f168201915b50505050509080600401805461084d9061214a565b80601f01602080910402602001604051908101604052809291908181526020018280546108799061214a565b80156108c65780601f1061089b576101008083540402835291602001916108c6565b820191906000526020600020905b8154815290600101906020018083116108a957829003601f168201915b5050505050908060050160009054906101000a900473ffffffffffffffffffffffffffffffffffffffff16905086565b60015481565b60005b600080549050811015610a6b578173ffffffffffffffffffffffffffffffffffffffff1660008281548110610937576109366120ec565b5b906000526020600020906006020160050160009054906101000a900473ffffffffffffffffffffffffffffffffffffffff1673ffffffffffffffffffffffffffffffffffffffff1603610a585760008181548110610998576109976120ec565b5b9060005260206000209060060201600080820160006109b791906117f6565b6001820160006109c791906117f6565b6002820160006109d791906117f6565b6003820160006109e791906117f6565b6004820160006109f791906117f6565b6005820160006101000a81549073ffffffffffffffffffffffffffffffffffffffff021916905550507f238880f2e266dc6d374f50079dd4e1478d4c00408e1e7291c26fa6323ccfce7981604051610a4f9190611cc8565b60405180910390a15b8080610a6390612518565b9150506108ff565b5050565b6001548110610ab3576040517f08c379a0000000000000000000000000000000000000000000000000000000008152600401610aaa906120cc565b60405180910390fd5b60008181548110610ac757610ac66120ec565b5b906000526020600020906006020160008082016000610ae691906117f6565b600182016000610af691906117f6565b600282016000610b0691906117f6565b600382016000610b1691906117f6565b600482016000610b2691906117f6565b6005820160006101000a81549073ffffffffffffffffffffffffffffffffffffffff021916905550507f238880f2e266dc6d374f50079dd4e1478d4c00408e1e7291c26fa6323ccfce7981604051610b7e9190611cc8565b60405180910390a150565b60026020528060005260406000206000915054906101000a900473ffffffffffffffffffffffffffffffffffffffff1681565b60606000805480602002602001604051908101604052809291908181526020016000905b82821015610f4257838290600052602060002090600602016040518060c0016040529081600082018054610c139061214a565b80601f0160208091040260200160405190810160405280929190818152602001828054610c3f9061214a565b8015610c8c5780601f10610c6157610100808354040283529160200191610c8c565b820191906000526020600020905b815481529060010190602001808311610c6f57829003601f168201915b50505050508152602001600182018054610ca59061214a565b80601f0160208091040260200160405190810160405280929190818152602001828054610cd19061214a565b8015610d1e5780601f10610cf357610100808354040283529160200191610d1e565b820191906000526020600020905b815481529060010190602001808311610d0157829003601f168201915b50505050508152602001600282018054610d379061214a565b80601f0160208091040260200160405190810160405280929190818152602001828054610d639061214a565b8015610db05780601f10610d8557610100808354040283529160200191610db0565b820191906000526020600020905b815481529060010190602001808311610d9357829003601f168201915b50505050508152602001600382018054610dc99061214a565b80601f0160208091040260200160405190810160405280929190818152602001828054610df59061214a565b8015610e425780601f10610e1757610100808354040283529160200191610e42565b820191906000526020600020905b815481529060010190602001808311610e2557829003601f168201915b50505050508152602001600482018054610e5b9061214a565b80601f0160208091040260200160405190810160405280929190818152602001828054610e879061214a565b8015610ed45780601f10610ea957610100808354040283529160200191610ed4565b820191906000526020600020905b815481529060010190602001808311610eb757829003601f168201915b505050505081526020016005820160009054906101000a900473ffffffffffffffffffffffffffffffffffffffff1673ffffffffffffffffffffffffffffffffffffffff1673ffffffffffffffffffffffffffffffffffffffff168152505081526020019060010190610be0565b50505050905090565b60606000805b600080549050811015610ff8578373ffffffffffffffffffffffffffffffffffffffff1660008281548110610f8957610f886120ec565b5b906000526020600020906006020160050160009054906101000a900473ffffffffffffffffffffffffffffffffffffffff1673ffffffffffffffffffffffffffffffffffffffff1603610fe5578180610fe190612518565b9250505b8080610ff090612518565b915050610f51565b5060008167ffffffffffffffff81111561101557611014611904565b5b60405190808252806020026020018201604052801561104e57816020015b61103b611836565b8152602001906001900390816110335790505b5090506000805b600080549050811015611477578573ffffffffffffffffffffffffffffffffffffffff166000828154811061108d5761108c6120ec565b5b906000526020600020906006020160050160009054906101000a900473ffffffffffffffffffffffffffffffffffffffff1673ffffffffffffffffffffffffffffffffffffffff160361146457600081815481106110ee576110ed6120ec565b5b90600052602060002090600602016040518060c00160405290816000820180546111179061214a565b80601f01602080910402602001604051908101604052809291908181526020018280546111439061214a565b80156111905780601f1061116557610100808354040283529160200191611190565b820191906000526020600020905b81548152906001019060200180831161117357829003601f168201915b505050505081526020016001820180546111a99061214a565b80601f01602080910402602001604051908101604052809291908181526020018280546111d59061214a565b80156112225780601f106111f757610100808354040283529160200191611222565b820191906000526020600020905b81548152906001019060200180831161120557829003601f168201915b5050505050815260200160028201805461123b9061214a565b80601f01602080910402602001604051908101604052809291908181526020018280546112679061214a565b80156112b45780601f10611289576101008083540402835291602001916112b4565b820191906000526020600020905b81548152906001019060200180831161129757829003601f168201915b505050505081526020016003820180546112cd9061214a565b80601f01602080910402602001604051908101604052809291908181526020018280546112f99061214a565b80156113465780601f1061131b57610100808354040283529160200191611346565b820191906000526020600020905b81548152906001019060200180831161132957829003601f168201915b5050505050815260200160048201805461135f9061214a565b80601f016020809104026020016040519081016040528092919081815260200182805461138b9061214a565b80156113d85780601f106113ad576101008083540402835291602001916113d8565b820191906000526020600020905b8154815290600101906020018083116113bb57829003601f168201915b505050505081526020016005820160009054906101000a900473ffffffffffffffffffffffffffffffffffffffff1673ffffffffffffffffffffffffffffffffffffffff1673ffffffffffffffffffffffffffffffffffffffff168152505083838151811061144a576114496120ec565b5b6020026020010181905250818061146090612518565b9250505b808061146f90612518565b915050611055565b50819350505050919050565b60015482106114c7576040517f08c379a00000000000000000000000000000000000000000000000000000000081526004016114be906120cc565b60405180910390fd5b600073ffffffffffffffffffffffffffffffffffffffff16600083815481106114f3576114f26120ec565b5b906000526020600020906006020160050160009054906101000a900473ffffffffffffffffffffffffffffffffffffffff1673ffffffffffffffffffffffffffffffffffffffff161461157b576040517f08c379a0000000000000000000000000000000000000000000000000000000008152600401611572906125ac565b60405180910390fd5b80600083815481106115905761158f6120ec565b5b906000526020600020906006020160050160006101000a81548173ffffffffffffffffffffffffffffffffffffffff021916908373ffffffffffffffffffffffffffffffffffffffff160217905550806002600084815260200190815260200160002060006101000a81548173ffffffffffffffffffffffffffffffffffffffff021916908373ffffffffffffffffffffffffffffffffffffffff1602179055507f3738a681a43a0b6a554742a08bae57e0215e8a774217dc2e7de6c9411b6d0ddc82826040516116629291906125cc565b60405180910390a15050565b60006040518060c00160405280878152602001868152602001858152602001848152602001838152602001600073ffffffffffffffffffffffffffffffffffffffff16815250908060018154018082558091505060019003906000526020600020906006020160009091909190915060008201518160000190816116f29190612327565b5060208201518160010190816117089190612327565b50604082015181600201908161171e9190612327565b5060608201518160030190816117349190612327565b50608082015181600401908161174a9190612327565b5060a08201518160050160006101000a81548173ffffffffffffffffffffffffffffffffffffffff021916908373ffffffffffffffffffffffffffffffffffffffff16021790555050507fa010ed7afb8d4b20a562fa97c3441f25c2df8860ab8c98a00e0a20453fe1777e60015486868686866040516117cf969594939291906123f9565b60405180910390a1600160008154809291906117ea90612518565b91905055505050505050565b5080546118029061214a565b6000825580601f106118145750611833565b601f0160209004906000526020600020908101906118329190611882565b5b50565b6040518060c001604052806060815260200160608152602001606081526020016060815260200160608152602001600073ffffffffffffffffffffffffffffffffffffffff1681525090565b5b8082111561189b576000816000905550600101611883565b5090565b6000604051905090565b600080fd5b600080fd5b6000819050919050565b6118c6816118b3565b81146118d157600080fd5b50565b6000813590506118e3816118bd565b92915050565b600080fd5b600080fd5b6000601f19601f8301169050919050565b7f4e487b7100000000000000000000000000000000000000000000000000000000600052604160045260246000fd5b61193c826118f3565b810181811067ffffffffffffffff8211171561195b5761195a611904565b5b80604052505050565b600061196e61189f565b905061197a8282611933565b919050565b600067ffffffffffffffff82111561199a57611999611904565b5b6119a3826118f3565b9050602081019050919050565b82818337600083830152505050565b60006119d26119cd8461197f565b611964565b9050828152602081018484840111156119ee576119ed6118ee565b5b6119f98482856119b0565b509392505050565b600082601f830112611a1657611a156118e9565b5b8135611a268482602086016119bf565b91505092915050565b60008060008060008060c08789031215611a4c57611a4b6118a9565b5b6000611a5a89828a016118d4565b965050602087013567ffffffffffffffff811115611a7b57611a7a6118ae565b5b611a8789828a01611a01565b955050604087013567ffffffffffffffff811115611aa857611aa76118ae565b5b611ab489828a01611a01565b945050606087013567ffffffffffffffff811115611ad557611ad46118ae565b5b611ae189828a01611a01565b935050608087013567ffffffffffffffff811115611b0257611b016118ae565b5b611b0e89828a01611a01565b92505060a087013567ffffffffffffffff811115611b2f57611b2e6118ae565b5b611b3b89828a01611a01565b9150509295509295509295565b600060208284031215611b5e57611b5d6118a9565b5b6000611b6c848285016118d4565b91505092915050565b600081519050919050565b600082825260208201905092915050565b60005b83811015611baf578082015181840152602081019050611b94565b60008484015250505050565b6000611bc682611b75565b611bd08185611b80565b9350611be0818560208601611b91565b611be9816118f3565b840191505092915050565b600073ffffffffffffffffffffffffffffffffffffffff82169050919050565b6000611c1f82611bf4565b9050919050565b611c2f81611c14565b82525050565b600060c0820190508181036000830152611c4f8189611bbb565b90508181036020830152611c638188611bbb565b90508181036040830152611c778187611bbb565b90508181036060830152611c8b8186611bbb565b90508181036080830152611c9f8185611bbb565b9050611cae60a0830184611c26565b979650505050505050565b611cc2816118b3565b82525050565b6000602082019050611cdd6000830184611cb9565b92915050565b611cec81611c14565b8114611cf757600080fd5b50565b600081359050611d0981611ce3565b92915050565b600060208284031215611d2557611d246118a9565b5b6000611d3384828501611cfa565b91505092915050565b6000602082019050611d516000830184611c26565b92915050565b600081519050919050565b600082825260208201905092915050565b6000819050602082019050919050565b600082825260208201905092915050565b6000611d9f82611b75565b611da98185611d83565b9350611db9818560208601611b91565b611dc2816118f3565b840191505092915050565b611dd681611c14565b82525050565b600060c0830160008301518482036000860152611df98282611d94565b91505060208301518482036020860152611e138282611d94565b91505060408301518482036040860152611e2d8282611d94565b91505060608301518482036060860152611e478282611d94565b91505060808301518482036080860152611e618282611d94565b91505060a0830151611e7660a0860182611dcd565b508091505092915050565b6000611e8d8383611ddc565b905092915050565b6000602082019050919050565b6000611ead82611d57565b611eb78185611d62565b935083602082028501611ec985611d73565b8060005b85811015611f055784840389528151611ee68582611e81565b9450611ef183611e95565b925060208a01995050600181019050611ecd565b50829750879550505050505092915050565b60006020820190508181036000830152611f318184611ea2565b905092915050565b60008060408385031215611f5057611f4f6118a9565b5b6000611f5e858286016118d4565b9250506020611f6f85828601611cfa565b9150509250929050565b600080600080600060a08688031215611f9557611f946118a9565b5b600086013567ffffffffffffffff811115611fb357611fb26118ae565b5b611fbf88828901611a01565b955050602086013567ffffffffffffffff811115611fe057611fdf6118ae565b5b611fec88828901611a01565b945050604086013567ffffffffffffffff81111561200d5761200c6118ae565b5b61201988828901611a01565b935050606086013567ffffffffffffffff81111561203a576120396118ae565b5b61204688828901611a01565b925050608086013567ffffffffffffffff811115612067576120666118ae565b5b61207388828901611a01565b9150509295509295909350565b7f496e76616c696420626f6f6b696e672049440000000000000000000000000000600082015250565b60006120b6601283611b80565b91506120c182612080565b602082019050919050565b600060208201905081810360008301526120e5816120a9565b9050919050565b7f4e487b7100000000000000000000000000000000000000000000000000000000600052603260045260246000fd5b7f4e487b7100000000000000000000000000000000000000000000000000000000600052602260045260246000fd5b6000600282049050600182168061216257607f821691505b6020821081036121755761217461211b565b5b50919050565b60008190508160005260206000209050919050565b60006020601f8301049050919050565b600082821b905092915050565b6000600883026121dd7fffffffffffffffffffffffffffffffffffffffffffffffffffffffffffffffff826121a0565b6121e786836121a0565b95508019841693508086168417925050509392505050565b6000819050919050565b600061222461221f61221a846118b3565b6121ff565b6118b3565b9050919050565b6000819050919050565b61223e83612209565b61225261224a8261222b565b8484546121ad565b825550505050565b600090565b61226761225a565b612272818484612235565b505050565b5b818110156122965761228b60008261225f565b600181019050612278565b5050565b601f8211156122db576122ac8161217b565b6122b584612190565b810160208510156122c4578190505b6122d86122d085612190565b830182612277565b50505b505050565b600082821c905092915050565b60006122fe600019846008026122e0565b1980831691505092915050565b600061231783836122ed565b9150826002028217905092915050565b61233082611b75565b67ffffffffffffffff81111561234957612348611904565b5b612353825461214a565b61235e82828561229a565b600060209050601f831160018114612391576000841561237f578287015190505b612389858261230b565b8655506123f1565b601f19841661239f8661217b565b60005b828110156123c7578489015182556001820191506020850194506020810190506123a2565b868310156123e457848901516123e0601f8916826122ed565b8355505b6001600288020188555050505b505050505050565b600060c08201905061240e6000830189611cb9565b81810360208301526124208188611bbb565b905081810360408301526124348187611bbb565b905081810360608301526124488186611bbb565b9050818103608083015261245c8185611bbb565b905081810360a08301526124708184611bbb565b9050979650505050505050565b7f4e6f20636f6e74726163746f722061737369676e656400000000000000000000600082015250565b60006124b3601683611b80565b91506124be8261247d565b602082019050919050565b600060208201905081810360008301526124e2816124a6565b9050919050565b7f4e487b7100000000000000000000000000000000000000000000000000000000600052601160045260246000fd5b6000612523826118b3565b91507fffffffffffffffffffffffffffffffffffffffffffffffffffffffffffffffff8203612555576125546124e9565b5b600182019050919050565b7f4a6f6220616c72656164792061737369676e6564000000000000000000000000600082015250565b6000612596601483611b80565b91506125a182612560565b602082019050919050565b600060208201905081810360008301526125c581612589565b9050919050565b60006040820190506125e16000830185611cb9565b6125ee6020830184611c26565b939250505056fea2646970667358221220f0a723ceb3bf820c151fb4486956e5166675834ecc3dbb25151b8be14a4f9adb64736f6c63430008110033",
  "immutableReferences": {},
  "source": "// SPDX-License-Identifier: MIT\r\npragma solidity ^0.8.0;\r\n\r\ncontract HandymanContract {\r\n    struct Booking {\r\n        string name;\r\n        string email;\r\n        string service;\r\n        string date;\r\n        string time;\r\n        address contractor; // Address of the contractor assigned to the booking\r\n    }\r\n\r\n    Booking[] public bookings;\r\n    uint256 public nextBookingId; // Track the next available booking ID\r\n\r\n    mapping(uint256 => address) public bookingToContractor; // Mapping from booking ID to contractor address\r\n\r\n    event BookingCreated(uint256 bookingId, string name, string email, string service, string date, string time);\r\n    event BookingUpdated(uint256 bookingId, string name, string email, string service, string date, string time);\r\n    event BookingDeleted(uint256 bookingId);\r\n    event JobAssigned(uint256 bookingId, address contractor);\r\n    event AssignmentCancelled(uint256 bookingId);\r\n\r\n    // Function to book a service\r\n    function bookService(string memory _name, string memory _email, string memory _service, string memory _date, string memory _time) public {\r\n        bookings.push(Booking(_name, _email, _service, _date, _time, address(0)));\r\n        emit BookingCreated(nextBookingId, _name, _email, _service, _date, _time);\r\n        nextBookingId++; // Increment the next booking ID\r\n    }\r\n\r\n    // Function to get the list of bookings\r\n    function getBookings() public view returns (Booking[] memory) {\r\n        return bookings;\r\n    }\r\n\r\n    // Function to edit an existing booking\r\n    function editBooking(uint256 _bookingId, string memory _name, string memory _email, string memory _service, string memory _date, string memory _time) public {\r\n        require(_bookingId < nextBookingId, \"Invalid booking ID\");\r\n        bookings[_bookingId] = Booking(_name, _email, _service, _date, _time, bookings[_bookingId].contractor);\r\n        emit BookingUpdated(_bookingId, _name, _email, _service, _date, _time);\r\n    }\r\n\r\n    // Function to delete an existing booking\r\n    function deleteBooking(uint256 _bookingId) public {\r\n        require(_bookingId < nextBookingId, \"Invalid booking ID\");\r\n        delete bookings[_bookingId];\r\n        emit BookingDeleted(_bookingId);\r\n    }\r\n\r\n    // Function to assign a booking to a contractor\r\n    function assignJob(uint256 _bookingId, address _contractor) public {\r\n        require(_bookingId < nextBookingId, \"Invalid booking ID\");\r\n        require(bookings[_bookingId].contractor == address(0), \"Job already assigned\");\r\n        bookings[_bookingId].contractor = _contractor;\r\n        bookingToContractor[_bookingId] = _contractor;\r\n        emit JobAssigned(_bookingId, _contractor);\r\n    }\r\n\r\n    // Function to cancel the assignment of a booking\r\n    function cancelAssignment(uint256 _bookingId) public {\r\n        require(_bookingId < nextBookingId, \"Invalid booking ID\");\r\n        require(bookings[_bookingId].contractor != address(0), \"No contractor assigned\");\r\n        bookings[_bookingId].contractor = address(0);\r\n        delete bookingToContractor[_bookingId];\r\n        emit AssignmentCancelled(_bookingId);\r\n    }\r\n\r\n    // Function to get the list of bookings assigned to a contractor\r\n    function getAssignedJobs(address _contractor) public view returns (Booking[] memory) {\r\n        uint256 count = 0;\r\n        for (uint256 i = 0; i < bookings.length; i++) {\r\n            if (bookings[i].contractor == _contractor) {\r\n                count++;\r\n            }\r\n        }\r\n\r\n        Booking[] memory assignedJobs = new Booking[](count);\r\n        uint256 index = 0;\r\n        for (uint256 i = 0; i < bookings.length; i++) {\r\n            if (bookings[i].contractor == _contractor) {\r\n                assignedJobs[index] = bookings[i];\r\n                index++;\r\n            }\r\n        }\r\n\r\n        return assignedJobs;\r\n    }\r\n\r\n    // Function to delete all bookings assigned to a contractor\r\n    function deleteAllAssignedJobs(address _contractor) public {\r\n        for (uint256 i = 0; i < bookings.length; i++) {\r\n            if (bookings[i].contractor == _contractor) {\r\n                delete bookings[i];\r\n                emit BookingDeleted(i);\r\n            }\r\n        }\r\n    }\r\n}\r\n",
  "sourcePath": "C:\\Users\\Amir\\Desktop\\handyman-marketplace\\contracts\\HandymanContract.sol",
  "compiler": {
    "name": "solc",
    "version": "0.8.17+commit.8df45f5f.Emscripten.clang"
  },
  "schemaVersion": "3.4.16",
  "updatedAt": "2024-05-28T17:24:30.000Z",
  "devdoc": {
    "kind": "dev",
    "methods": {},
    "version": 1
  },
  "userdoc": {
    "kind": "user",
    "methods": {},
    "version": 1
  }
}